:1000000000308A0018280000183084000008031906
:10001000172801308D008C018C0B0C288D0B0B28C0
:100020004A308C008C0B12281528800B09280800F8
:1000300084011F308305003066008601950191011F
:100040001108023C031C3628851402309700FA3050
:1000500098000420970B2728851002309700FA306B
:1000600098000420970B2F28910A2028F43096003E
:10007000160898000420051DE628051D43281E309B
:10008000980004203D289508031D96289201120827
:10009000043C031C932801308600160898000420B5
:1000A00002308600160898000420043086001608E6
:1000B00098000420083086001608980004201030AC
:1000C0008600160898000420203086001608980044
:1000D00004204030860016089800042080308600F6
:1000E0001608980004204030860016089800042066
:1000F000203086001608980004201030860016086C
:100100009800042008308600160898000420043067
:100110008600160898000420023086001608980011
:100120000420920A472801309507E628150BC028BD
:1001300093011308043C031CBD2881308600160877
:1001400098000420423086001608980004202430CD
:1001500086001608980004201830860016089800BB
:1001600004202430860016089800042042308600BF
:10017000160898000420930A992801309507E6286C
:10018000950194011408043C031CE628C030860045
:1001900016089800042030308600160898000420C5
:1001A0000C308600160898000420033086001608DC
:1001B000980004200C308600160898000420303087
:1001C0008600160898000420940AC2283B28630081
:02400E00F93F78
:00000001FF
;PIC16F84A
;CRC=4365  CREATED="04-jun.-18 10:09"
