:1000000000308A0018280000163084000008031908
:10001000172801308D008C018C0B0C288D0B0B28C0
:100020004A308C008C0B12281528800B09280800F8
:1000300084011F308305003066002430650083167C
:1000400086018312860191011108023C031C40289D
:10005000831685108312851402309500FA309600BD
:100060000420950B2E2883168510831285100230EC
:100070009500FA3096000420950B3928910A24281F
:10008000831605158312051D522883160515831244
:10009000051D4E281E3096000420452883160610A4
:1000A00083120614831685158312851D6428831612
:1000B00085158312851D60281E3096000420572860
:0C00C0008316061083120610402863000F
:02400E00F93F78
:00000001FF
;PIC16F84A
;CRC=C2C1  CREATED="01-jun.-18 10:24"
