:1000000000308A0018280000153084000008031909
:10001000172801308D008C018C0B0C288D0B0B28C0
:100020004A308C008C0B12281528800B09280800F8
:1000300084011F308305003066008601F430920091
:10004000930191011108023C031C382885140230E9
:100050009400FA3095000420940B29288510023072
:100060009400FA3095000420940B3128910A22283C
:10007000051DB828051D40281E30950004203A288B
:10008000C0308600120895000420F930860012085E
:1000900095000420A4308600120895000420B0309A
:1000A00086001208950004209930860012089500F9
:1000B00004202130860012089500042002308600BA
:1000C000120895000420F8308600120895000420DC
:1000D00080308600120895000420983086001208AF
:1000E0009500042021308600120895000420C030BD
:1000F00086001208950004208630860012089500BC
:100100000420C030860012089500042021308600AB
:1001100012089500042098308600120895000420EB
:1001200080308600120895000420F83086001208FE
:10013000950004200230860012089500042021302A
:100140008600120895000420993086001208950058
:100150000420B0308600120895000420A4308600E8
:10016000120895000420F93086001208950004203A
:0401700038286300C8
:02400E00F93F78
:00000001FF
;PIC16F84A
;CRC=9F1D  CREATED="04-jun.-18 10:46"
