:1000000000308A001828000014308400000803190A
:10001000172801308D008C018C0B0C288D0B0B28C0
:100020004A308C008C0B12281528800B09280800F8
:1000300084011F3083050030660083168601831219
:100040008601F4309200930191011108023C031CD7
:100050003928831685108312851412089400042011
:100060008316851083128510120894000420910ACB
:100070002528831605158312051DBF28831605152F
:100080008312051D47281E30940004203E281308C3
:1000900003196F28013A03197528033A03197B28BD
:1000A000013A03198128073A03198728013A0319ED
:1000B0008D28033A03199328013A031999280F3A16
:1000C00003199F28013A0319A528033A0319AB28FD
:1000D000013A0319B128073A0319B728BD28831636
:1000E0008601C03083128600BE2883168601F9304F
:1000F00083128600BE2883168601A43083128600F0
:10010000BE2883168601B03083128600BE2883166F
:100110008601993083128600BE28831686019230AC
:1001200083128600BE2883168601823083128600E1
:10013000BE2883168601B83083128600BE28831637
:100140008601803083128600BE288316860198308F
:1001500083128600BE2883168601923083128600A1
:10016000BE2883168601C03083128600BE288316FF
:100170008601863083128600BE289301930A3928AF
:0201800063001A
:02400E00F13F80
:00000001FF
;PIC16F84A
;CRC=A03F  CREATED="08-jun.-18 09:42"
