:1000000000308A00182800001B3084000008031903
:10001000172801308D008C018C0B0C288D0B0B28C0
:100020004A308C008C0B12281528800B09280800F8
:1000300084011F3083050030660083168601831219
:1000400086010C306500C0309200F9309300A43076
:100050009400B0309500993096009230970082302D
:100060009800990191011108023C031C4F28831646
:1000700085108312851402309A00FA309B00042008
:100080009A0B3D28831685108312851002309A0042
:10009000FA309B0004209A0B4828910A33288316D3
:1000A00005158312051D6628123019078400000803
:1000B0009A008316860183121A08860032309B004C
:1000C0000420990A1908053C031C99014F28630074
:02400E00F13F80
:00000001FF
;PIC16F84A
;CRC=E4D4  CREATED="08-jun.-18 08:56"
