:1000000000308A001828000014308400000803190A
:10001000172801308D008C018C0B0C288D0B0B28C0
:100020004A308C008C0B12281528800B09280800F8
:1000300084011F308305003066002430650083167C
:10004000860183128601920191011108023C031C72
:100050004128831685108312851402309300FA30EC
:1000600094000420930B2F2883168510831285108B
:1000700002309300FA3094000420930B3A28910A3E
:100080002528831605158312051D5D288316051581
:100090008312051D4F281E30940004204628120BA1
:1000A0005728831606108312061492015D2801302A
:0E00B00092008316061083120610412863008A
:02400E00F93F78
:00000001FF
;PIC16F84A
;CRC=088B  CREATED="01-jun.-18 10:25"
