:1000000000308A0018280000173084000008031907
:10001000172801308D008C018C0B0C288D0B0B28C0
:100020004A308C008C0B12281528800B09280800F8
:1000300084011F308305003066008601910111089C
:10004000023C031C3528851402309600FA309700D4
:100050000420960B2628851002309600FA3097006F
:100060000420960B2E28910A1F28F43095001508BD
:100070009700042092011208043C031C87280130D9
:1000800086001508970004200230860015089700A6
:1000900004200430860015089700042008308600EC
:1000A00015089700042010308600150897000420DA
:1000B000203086001508970004204030860015087F
:1000C00097000420803086001508970004204030F7
:1000D0008600150897000420203086001508970038
:1000E0000420103086001508970004200830860090
:1000F0001508970004200430860015089700042096
:1001000002308600150897000420920A3B289301CC
:100110001308043C031CAC288130860015089700A6
:100120000420423086001508970004202430860001
:100130001508970004201830860015089700042041
:1001400024308600150897000420423086001508E8
:1001500097000420930A882894011408043C031C87
:10016000D128C03086001508970004203030860062
:100170001508970004200C3086001508970004200D
:10018000033086001508970004200C3086001508FF
:100190009700042030308600150897000420940A48
:0601A000AD283A286300BF
:02400E00F93F78
:00000001FF
;PIC16F84A
;CRC=4B91  CREATED="01-jun.-18 10:06"
