:1000000000308A007E280000233084000008031995
:10001000172801308D008C018C0B0C288D0B0B28C0
:100020004A308C008C0B12281528800B09280800F8
:10003000F4309E009D011D08023C031C2F288316EE
:100040008510831285141E08A300042083168510D2
:10005000831285101E08A30004209D0A1B289D28DA
:10006000831605158312051D422883160515831274
:10007000051D3E281E30A3000420352801308D00C8
:1000800055285328831685148312851C53288316FC
:1000900085148312851C50281E30A3000420472895
:1000A00002308D00552800308D0008001108A30093
:1000B00004209E011E081202031C7D289F011F08B8
:1000C0001302031C7B28A0012008033C031C792891
:1000D0001D08200784000008A1002108A200831643
:1000E00086018312220886001008A3000420A00ABB
:1000F00064289F0A5F289E0A5A28080084011F303E
:100100008305033090008830910005309200FA306A
:1001100093000030660005309400093095000A30E5
:1001200096000630970098000A30990009309A002E
:1001300005309B003C309C00182830200D0BB52862
:100140001C083C3A0319A828023A0319AE28B4281F
:1001500014309D0056203E309C00B42818309D007D
:1001600056203C309C00B428CE2830200D08023C9C
:10017000031DCE281C083C3A0319C228023A031971
:10018000C828CE2814309D0056203E309C00CE2832
:0E01900018309D0056203C309C00CE286300A5
:02400E00F13F80
:00000001FF
;PIC16F84A
;CRC=CFD6  CREATED="20-jun.-18 00:25"
