:1000000000308A001828000013308400000803190B
:10001000172801308D008C018C0B0C288D0B0B28C0
:100020004A308C008C0B12281528800B09280800F8
:1000300084011F3083050030660083168601831219
:100040008601910183168510831285140230920077
:10005000FA3093000420920B28288316851083120F
:10006000851002309200FA3093000420920B33285E
:10007000910A22288316061083120614831686100E
:100080008312861002309200FA3093000420920B03
:100090004428831686108312861483160610831252
:0600A00006103A2863007F
:02400E00F13F80
:00000001FF
;PIC16F84A
;CRC=7091  CREATED="28-may.-18 09:55"
